{
  "_format": "hh-sol-artifact-1",
  "contractName": "CommitManager",
  "sourceName": "contracts/CommitPortal.sol",
  "abi": [
    {
      "inputs": [],
      "stateMutability": "nonpayable",
      "type": "constructor"
    },
    {
      "anonymous": false,
      "inputs": [
        {
          "indexed": true,
          "internalType": "address",
          "name": "from",
          "type": "address"
        },
        {
          "indexed": false,
          "internalType": "uint256",
          "name": "amount",
          "type": "uint256"
        }
      ],
      "name": "Claimed",
      "type": "event"
    },
    {
      "anonymous": false,
      "inputs": [
        {
          "indexed": true,
          "internalType": "address",
          "name": "from",
          "type": "address"
        },
        {
          "indexed": true,
          "internalType": "address",
          "name": "to",
          "type": "address"
        },
        {
          "indexed": false,
          "internalType": "uint256",
          "name": "expiryTimestamp",
          "type": "uint256"
        },
        {
          "indexed": false,
          "internalType": "uint256",
          "name": "stakeAmount",
          "type": "uint256"
        },
        {
          "indexed": false,
          "internalType": "string",
          "name": "commitMessage",
          "type": "string"
        }
      ],
      "name": "NewCommit",
      "type": "event"
    },
    {
      "inputs": [
        {
          "internalType": "string",
          "name": "_message",
          "type": "string"
        },
        {
          "internalType": "address",
          "name": "commitTo",
          "type": "address"
        },
        {
          "internalType": "uint256",
          "name": "expiryTimestamp",
          "type": "uint256"
        },
        {
          "internalType": "uint256",
          "name": "stakeAmount",
          "type": "uint256"
        }
      ],
      "name": "createCommit",
      "outputs": [],
      "stateMutability": "payable",
      "type": "function"
    },
    {
      "inputs": [],
      "name": "getAllCommits",
      "outputs": [
        {
          "components": [
            {
              "internalType": "uint256",
              "name": "id",
              "type": "uint256"
            },
            {
              "internalType": "address",
              "name": "commitFrom",
              "type": "address"
            },
            {
              "internalType": "address",
              "name": "commitTo",
              "type": "address"
            },
            {
              "internalType": "uint256",
              "name": "expiryTimestamp",
              "type": "uint256"
            },
            {
              "internalType": "uint256",
              "name": "stakeAmount",
              "type": "uint256"
            },
            {
              "internalType": "string",
              "name": "message",
              "type": "string"
            },
            {
              "internalType": "string",
              "name": "proofIpfsHash",
              "type": "string"
            },
            {
              "internalType": "bool",
              "name": "commitApproved",
              "type": "bool"
            }
          ],
          "internalType": "struct CommitManager.Commit[]",
          "name": "",
          "type": "tuple[]"
        }
      ],
      "stateMutability": "view",
      "type": "function"
    },
    {
      "inputs": [],
      "name": "getTotalCommits",
      "outputs": [
        {
          "internalType": "uint256",
          "name": "",
          "type": "uint256"
        }
      ],
      "stateMutability": "view",
      "type": "function"
    },
    {
      "inputs": [
        {
          "internalType": "uint256",
          "name": "commitId",
          "type": "uint256"
        },
        {
          "internalType": "bool",
          "name": "commitApproved",
          "type": "bool"
        }
      ],
      "name": "judgeCommit",
      "outputs": [],
      "stateMutability": "nonpayable",
      "type": "function"
    },
    {
      "inputs": [
        {
          "internalType": "uint256",
          "name": "commitId",
          "type": "uint256"
        },
        {
          "internalType": "string",
          "name": "_proofIpfsHash",
          "type": "string"
        }
      ],
      "name": "updateCommit",
      "outputs": [],
      "stateMutability": "nonpayable",
      "type": "function"
    }
  ],
  "bytecode": "0x60806040523480156200001157600080fd5b506000600181905550620000656040518060400160405280601f81526020017f436f6d6d69744d616e6167657220636f6e7472616374206465706c6f796564008152506200006b60201b620009751760201c565b620001f5565b6200010b81604051602401620000829190620001d1565b6040516020818303038152906040527f41304fac000000000000000000000000000000000000000000000000000000007bffffffffffffffffffffffffffffffffffffffffffffffffffffffff19166020820180517bffffffffffffffffffffffffffffffffffffffffffffffffffffffff83818316178352505050506200010e60201b60201c565b50565b60008151905060006a636f6e736f6c652e6c6f679050602083016000808483855afa5050505050565b600081519050919050565b600082825260208201905092915050565b60005b838110156200017357808201518184015260208101905062000156565b60008484015250505050565b6000601f19601f8301169050919050565b60006200019d8262000137565b620001a9818562000142565b9350620001bb81856020860162000153565b620001c6816200017f565b840191505092915050565b60006020820190508181036000830152620001ed818462000190565b905092915050565b61190b80620002056000396000f3fe60806040526004361061004a5760003560e01c80631e276b791461004f578063a17027e114610078578063ba85a6fb146100a3578063be7fbfab146100cc578063d7d41351146100f7575b600080fd5b34801561005b57600080fd5b5061007660048036038101906100719190610b58565b610113565b005b34801561008457600080fd5b5061008d6102ff565b60405161009a9190610e00565b60405180910390f35b3480156100af57600080fd5b506100ca60048036038101906100c59190610f57565b610568565b005b3480156100d857600080fd5b506100e16106d4565b6040516100ee9190610fc2565b60405180910390f35b610111600480360381019061010c9190611009565b6106de565b005b60008083815481106101285761012761108c565b5b906000526020600020906008020190503373ffffffffffffffffffffffffffffffffffffffff168160020160009054906101000a900473ffffffffffffffffffffffffffffffffffffffff1673ffffffffffffffffffffffffffffffffffffffff16146101ca576040517f08c379a00000000000000000000000000000000000000000000000000000000081526004016101c19061113e565b60405180910390fd5b42816003015411610210576040517f08c379a0000000000000000000000000000000000000000000000000000000008152600401610207906111aa565b60405180910390fd5b600015158160070160009054906101000a900460ff16151514610268576040517f08c379a000000000000000000000000000000000000000000000000000000000815260040161025f90611216565b60405180910390fd5b818160070160006101000a81548160ff02191690831515021790555081156102fa578060010160009054906101000a900473ffffffffffffffffffffffffffffffffffffffff1673ffffffffffffffffffffffffffffffffffffffff166108fc82600401549081150290604051600060405180830381858888f193505050501580156102f8573d6000803e3d6000fd5b505b505050565b60606000805480602002602001604051908101604052809291908181526020016000905b8282101561055f578382906000526020600020906008020160405180610100016040529081600082015481526020016001820160009054906101000a900473ffffffffffffffffffffffffffffffffffffffff1673ffffffffffffffffffffffffffffffffffffffff1673ffffffffffffffffffffffffffffffffffffffff1681526020016002820160009054906101000a900473ffffffffffffffffffffffffffffffffffffffff1673ffffffffffffffffffffffffffffffffffffffff1673ffffffffffffffffffffffffffffffffffffffff168152602001600382015481526020016004820154815260200160058201805461042190611265565b80601f016020809104026020016040519081016040528092919081815260200182805461044d90611265565b801561049a5780601f1061046f5761010080835404028352916020019161049a565b820191906000526020600020905b81548152906001019060200180831161047d57829003601f168201915b505050505081526020016006820180546104b390611265565b80601f01602080910402602001604051908101604052809291908181526020018280546104df90611265565b801561052c5780601f106105015761010080835404028352916020019161052c565b820191906000526020600020905b81548152906001019060200180831161050f57829003601f168201915b505050505081526020016007820160009054906101000a900460ff16151515158152505081526020019060010190610323565b50505050905090565b600080838154811061057d5761057c61108c565b5b906000526020600020906008020190503373ffffffffffffffffffffffffffffffffffffffff168160010160009054906101000a900473ffffffffffffffffffffffffffffffffffffffff1673ffffffffffffffffffffffffffffffffffffffff161461061f576040517f08c379a000000000000000000000000000000000000000000000000000000000815260040161061690611308565b60405180910390fd5b600015158160070160009054906101000a900460ff16151514610677576040517f08c379a000000000000000000000000000000000000000000000000000000000815260040161066e9061139a565b60405180910390fd5b428160030154116106bd576040517f08c379a00000000000000000000000000000000000000000000000000000000081526004016106b490611406565b60405180910390fd5b818160060190816106ce91906115d2565b50505050565b6000600154905090565b803414610720576040517f08c379a000000000000000000000000000000000000000000000000000000000815260040161071790611716565b60405180910390fd5b3373ffffffffffffffffffffffffffffffffffffffff168373ffffffffffffffffffffffffffffffffffffffff160361078e576040517f08c379a000000000000000000000000000000000000000000000000000000000815260040161078590611782565b60405180910390fd5b6107b16040518060600160405280602181526020016118b5602191393386610a0e565b600060405180610100016040528060015481526020013373ffffffffffffffffffffffffffffffffffffffff1681526020018573ffffffffffffffffffffffffffffffffffffffff16815260200184815260200183815260200186815260200160405180602001604052806000815250815260200160001515815250905060008190806001815401808255809150506001900390600052602060002090600802016000909190919091506000820151816000015560208201518160010160006101000a81548173ffffffffffffffffffffffffffffffffffffffff021916908373ffffffffffffffffffffffffffffffffffffffff16021790555060408201518160020160006101000a81548173ffffffffffffffffffffffffffffffffffffffff021916908373ffffffffffffffffffffffffffffffffffffffff160217905550606082015181600301556080820151816004015560a082015181600501908161091c91906115d2565b5060c082015181600601908161093291906115d2565b5060e08201518160070160006101000a81548160ff0219169083151502179055505050600180600082825461096791906117d1565b925050819055505050505050565b610a0b81604051602401610989919061183e565b6040516020818303038152906040527f41304fac000000000000000000000000000000000000000000000000000000007bffffffffffffffffffffffffffffffffffffffffffffffffffffffff19166020820180517bffffffffffffffffffffffffffffffffffffffffffffffffffffffff8381831617835250505050610aad565b50565b610aa8838383604051602401610a269392919061186f565b6040516020818303038152906040527fe0e9ad4f000000000000000000000000000000000000000000000000000000007bffffffffffffffffffffffffffffffffffffffffffffffffffffffff19166020820180517bffffffffffffffffffffffffffffffffffffffffffffffffffffffff8381831617835250505050610aad565b505050565b60008151905060006a636f6e736f6c652e6c6f679050602083016000808483855afa5050505050565b6000604051905090565b600080fd5b600080fd5b6000819050919050565b610afd81610aea565b8114610b0857600080fd5b50565b600081359050610b1a81610af4565b92915050565b60008115159050919050565b610b3581610b20565b8114610b4057600080fd5b50565b600081359050610b5281610b2c565b92915050565b60008060408385031215610b6f57610b6e610ae0565b5b6000610b7d85828601610b0b565b9250506020610b8e85828601610b43565b9150509250929050565b600081519050919050565b600082825260208201905092915050565b6000819050602082019050919050565b610bcd81610aea565b82525050565b600073ffffffffffffffffffffffffffffffffffffffff82169050919050565b6000610bfe82610bd3565b9050919050565b610c0e81610bf3565b82525050565b600081519050919050565b600082825260208201905092915050565b60005b83811015610c4e578082015181840152602081019050610c33565b60008484015250505050565b6000601f19601f8301169050919050565b6000610c7682610c14565b610c808185610c1f565b9350610c90818560208601610c30565b610c9981610c5a565b840191505092915050565b610cad81610b20565b82525050565b600061010083016000830151610ccc6000860182610bc4565b506020830151610cdf6020860182610c05565b506040830151610cf26040860182610c05565b506060830151610d056060860182610bc4565b506080830151610d186080860182610bc4565b5060a083015184820360a0860152610d308282610c6b565b91505060c083015184820360c0860152610d4a8282610c6b565b91505060e0830151610d5f60e0860182610ca4565b508091505092915050565b6000610d768383610cb3565b905092915050565b6000602082019050919050565b6000610d9682610b98565b610da08185610ba3565b935083602082028501610db285610bb4565b8060005b85811015610dee5784840389528151610dcf8582610d6a565b9450610dda83610d7e565b925060208a01995050600181019050610db6565b50829750879550505050505092915050565b60006020820190508181036000830152610e1a8184610d8b565b905092915050565b600080fd5b600080fd5b7f4e487b7100000000000000000000000000000000000000000000000000000000600052604160045260246000fd5b610e6482610c5a565b810181811067ffffffffffffffff82111715610e8357610e82610e2c565b5b80604052505050565b6000610e96610ad6565b9050610ea28282610e5b565b919050565b600067ffffffffffffffff821115610ec257610ec1610e2c565b5b610ecb82610c5a565b9050602081019050919050565b82818337600083830152505050565b6000610efa610ef584610ea7565b610e8c565b905082815260208101848484011115610f1657610f15610e27565b5b610f21848285610ed8565b509392505050565b600082601f830112610f3e57610f3d610e22565b5b8135610f4e848260208601610ee7565b91505092915050565b60008060408385031215610f6e57610f6d610ae0565b5b6000610f7c85828601610b0b565b925050602083013567ffffffffffffffff811115610f9d57610f9c610ae5565b5b610fa985828601610f29565b9150509250929050565b610fbc81610aea565b82525050565b6000602082019050610fd76000830184610fb3565b92915050565b610fe681610bf3565b8114610ff157600080fd5b50565b60008135905061100381610fdd565b92915050565b6000806000806080858703121561102357611022610ae0565b5b600085013567ffffffffffffffff81111561104157611040610ae5565b5b61104d87828801610f29565b945050602061105e87828801610ff4565b935050604061106f87828801610b0b565b925050606061108087828801610b0b565b91505092959194509250565b7f4e487b7100000000000000000000000000000000000000000000000000000000600052603260045260246000fd5b600082825260208201905092915050565b7f596f7520617265206e6f742074686520726563697069656e74206f662074686960008201527f7320636f6d6d6974000000000000000000000000000000000000000000000000602082015250565b60006111286028836110bb565b9150611133826110cc565b604082019050919050565b600060208201905081810360008301526111578161111b565b9050919050565b7f436f6d6d69742068617320657870697265640000000000000000000000000000600082015250565b60006111946012836110bb565b915061119f8261115e565b602082019050919050565b600060208201905081810360008301526111c381611187565b9050919050565b7f436f6d6d69742068617320616c7265616479206265656e206a75646765640000600082015250565b6000611200601e836110bb565b915061120b826111ca565b602082019050919050565b6000602082019050818103600083015261122f816111f3565b9050919050565b7f4e487b7100000000000000000000000000000000000000000000000000000000600052602260045260246000fd5b6000600282049050600182168061127d57607f821691505b6020821081036112905761128f611236565b5b50919050565b7f596f7520617265206e6f74207468652063726561746f72206f6620746869732060008201527f636f6d6d69740000000000000000000000000000000000000000000000000000602082015250565b60006112f26026836110bb565b91506112fd82611296565b604082019050919050565b60006020820190508181036000830152611321816112e5565b9050919050565b7f5468697320636f6d6d69742068617320616c7265616479206265656e2061707060008201527f726f766564000000000000000000000000000000000000000000000000000000602082015250565b60006113846025836110bb565b915061138f82611328565b604082019050919050565b600060208201905081810360008301526113b381611377565b9050919050565b7f5468697320636f6d6d6974206861732065787069726564000000000000000000600082015250565b60006113f06017836110bb565b91506113fb826113ba565b602082019050919050565b6000602082019050818103600083015261141f816113e3565b9050919050565b60008190508160005260206000209050919050565b60006020601f8301049050919050565b600082821b905092915050565b6000600883026114887fffffffffffffffffffffffffffffffffffffffffffffffffffffffffffffffff8261144b565b611492868361144b565b95508019841693508086168417925050509392505050565b6000819050919050565b60006114cf6114ca6114c584610aea565b6114aa565b610aea565b9050919050565b6000819050919050565b6114e9836114b4565b6114fd6114f5826114d6565b848454611458565b825550505050565b600090565b611512611505565b61151d8184846114e0565b505050565b5b818110156115415761153660008261150a565b600181019050611523565b5050565b601f8211156115865761155781611426565b6115608461143b565b8101602085101561156f578190505b61158361157b8561143b565b830182611522565b50505b505050565b600082821c905092915050565b60006115a96000198460080261158b565b1980831691505092915050565b60006115c28383611598565b9150826002028217905092915050565b6115db82610c14565b67ffffffffffffffff8111156115f4576115f3610e2c565b5b6115fe8254611265565b611609828285611545565b600060209050601f83116001811461163c576000841561162a578287015190505b61163485826115b6565b86555061169c565b601f19841661164a86611426565b60005b828110156116725784890151825560018201915060208501945060208101905061164d565b8683101561168f578489015161168b601f891682611598565b8355505b6001600288020188555050505b505050505050565b7f596f75206d7573742073656e642074686520657861637420616d6f756e74206f60008201527f662045544820617320746865207374616b6520616d6f756e7400000000000000602082015250565b60006117006039836110bb565b915061170b826116a4565b604082019050919050565b6000602082019050818103600083015261172f816116f3565b9050919050565b7f43616e6e6f7420636f6d6d697420746f20796f757273656c6600000000000000600082015250565b600061176c6019836110bb565b915061177782611736565b602082019050919050565b6000602082019050818103600083015261179b8161175f565b9050919050565b7f4e487b7100000000000000000000000000000000000000000000000000000000600052601160045260246000fd5b60006117dc82610aea565b91506117e783610aea565b92508282019050808211156117ff576117fe6117a2565b5b92915050565b600061181082610c14565b61181a81856110bb565b935061182a818560208601610c30565b61183381610c5a565b840191505092915050565b600060208201905081810360008301526118588184611805565b905092915050565b61186981610bf3565b82525050565b600060608201905081810360008301526118898186611805565b90506118986020830185611860565b81810360408301526118aa8184611805565b905094935050505056fe0a25732068617320636f6d6d697465642077697468206d6573736167653a202573a26469706673582212208f0519a8113fc46bd7a54189d08873c31b4d4b119a1b38f6f47d0ddcdb4bece164736f6c63430008110033",
  "linkReferences": {},
  "deployedLinkReferences": {}
}